:100000000C9483000C94B4000C94B4000C94B400D1
:100010000C94B4000C94B4000C94B4000C94B40090
:100020000C94B4000C94B4000C94B4000C94B40080
:100030000C94B4000C94B4000C94B4000C94B40070
:100040000C94B4000C94B4000C94B4000C94B40060
:100050000C94B4000C94B4000C94B4000C94C00242
:100060000C94B4000C948A020C9460020C94B400BA
:100070000C94B4000C94B4000C94B4000C94B40030
:100080000C94B4000C94B4000C94B4000C94B40020
:100090000C94B4000C94B4000C94B4000C94B40010
:1000A0000C94B4000C94B4000C94B4000C94B40000
:1000B0000C94B4000C94B4000C94B4000C94B400F0
:1000C0000C94B4000C94B4000C94B4000C94B400E0
:1000D0000C94B4000C94B4000C94B4000C94B400D0
:1000E0000C94B4000C94E3000C944C010C94990112
:1000F0000C94B6000C94B1040C9406010C94F2001C
:100100000C941401B10411241FBECFEFD1E2DEBF65
:10011000CDBF00E00CBF12E0A0E0B2E0ECE8FEE0F2
:1001200000E00BBF02C007900D92A432B107D9F7CF
:1001300022E0A4E2B2E001C01D92AA3CB207E1F7BE
:1001400010E0C3E8D0E000E006C021970109802F4D
:10015000FE010E943C07C238D10780E00807A9F7DA
:100160000E940A030C9444070C940000AF92BF92C3
:10017000CF92DF92EF92FF920F931F93CF93DF9373
:100180006C017B018B01040F151FEB015E01AE18A2
:10019000BF08C017D10759F06991D601ED91FC91C4
:1001A0000190F081E02DC6011995892B79F7C501E1
:1001B000DF91CF911F910F91FF90EF90DF90CF9043
:1001C000BF90AF900895FC01538D448D252F30E0F2
:1001D000842F90E0821B930B541710F0CF96089554
:1001E00001970895FC01918D828D981761F0A28D81
:1001F000AE0FBF2FB11D5D968C91928D9F5F9F7347
:10020000928F90E008958FEF9FEF0895FC01918DFC
:10021000828D981731F0828DE80FF11D858D90E069
:1002200008958FEF9FEF0895FC01918D228D892F06
:1002300090E0805C9F4F821B91098F7399270895EE
:100240008DE292E00E94140121E0892B09F420E064
:10025000822F0895FC01A48DA80FB92FB11DA35AB8
:10026000BF4F2C91848D90E001968F739927848FD6
:10027000A689B7892C93A089B1898C9183708064F9
:100280008C93938D848D981306C00288F389E02D9A
:1002900080818F7D80830895EF92FF920F931F934B
:1002A000CF93DF93EC0181E0888F9B8D8C8D981329
:1002B0001AC0E889F989808185FF15C09FB7F89435
:1002C000EE89FF896083E889F98980818370806481
:1002D00080839FBF81E090E0DF91CF911F910F91CC
:1002E000FF90EF900895F62E0B8D10E00F5F1F4FDB
:1002F0000F731127E02E8C8D8E110CC00FB607FCEA
:10030000FACFE889F989808185FFF5CFCE010E9477
:100310002A01F1CFEB8DEC0FFD2FF11DE35AFF4FBA
:10032000F0829FB7F8940B8FEA89FB898081806205
:10033000CFCFCF93DF93EC01888D8823B9F0AA89C2
:10034000BB89E889F9898C9185FD03C0808186FD90
:100350000DC00FB607FCF7CF8C9185FFF2CF8081DF
:1003600085FFEDCFCE010E942A01E9CFDF91CF9129
:10037000089580E090E0892B29F00E9420018111EE
:100380000E94000080E090E0892B49F080E090E03E
:10039000892B29F00E94000081110E94000080E05A
:1003A00090E0892B49F080E090E0892B29F00E94B1
:1003B000000081110E94000080E090E0892B49F04C
:1003C00080E090E0892B29F00E94000081110C94BC
:1003D000000008953FB7F8948091290290912A0275
:1003E000A0912B02B0912C0226B5A89B05C02F3FEF
:1003F00019F00196A11DB11D3FBFBA2FA92F982F4B
:100400008827BC01CD01620F711D811D911D42E045
:10041000660F771F881F991F4A95D1F70895FC0131
:1004200001900020E9F73197AF01481B590BBC013F
:100430008DE292E00C94B6008F929F92AF92BF92A1
:100440000F931F93CF93DF93CDB7DEB7A1970FB66E
:10045000F894DEBF0FBECDBF19A2423008F44AE0C7
:100460008E010F5D1F4F842E912CB12CA12CA50164
:1004700094010E941A07E62FB901CA01EA30F4F488
:10048000E05DD801EE938D01232B242B252B79F7EA
:1004900090E080E0109719F0CD010E940F02A19624
:1004A0000FB6F894DEBF0FBECDBFDF91CF911F9185
:1004B0000F91BF90AF909F908F900895E95CE1CF2E
:1004C0001F920F920FB60F9211240BB60F922F931B
:1004D0003F934F935F936F937F938F939F93AF93CC
:1004E000BF93EF93FF938DE292E00E942A01FF9168
:1004F000EF91BF91AF919F918F917F916F915F919C
:100500004F913F912F910F900BBE0F900FBE0F9008
:100510001F9018951F920F920FB60F9211240BB6D1
:100520000F922F938F939F93EF93FF93E0913D0250
:10053000F0913E028081E0914302F091440282FDFD
:100540001DC09081809146028F5F8F73209147027A
:10055000821741F0E0914602F0E0E35DFD4F958F98
:1005600080934602FF91EF919F918F912F910F9071
:100570000BBE0F900FBE0F901F9018958081F2CF89
:100580001F920F920FB60F9211242F933F938F93C8
:100590009F93AF93BF938091250290912602A091E3
:1005A0002702B09128023091240223E0230F2D3737
:1005B00058F50196A11DB11D2093240280932502B8
:1005C00090932602A0932702B093280280912902DB
:1005D00090912A02A0912B02B0912C020196A11DAC
:1005E000B11D8093290290932A02A0932B02B0930D
:1005F0002C02BF91AF919F918F913F912F910F90BE
:100600000FBE0F901F90189526E8230F0296A11D8C
:10061000B11DD2CF789484B5826084BD84B58160E9
:1006200084BD85B5826085BD85B5816085BD8091BD
:100630006E00816080936E00109281008091810035
:10064000826080938100809181008160809381002D
:10065000809180008160809380008091B1008460EF
:100660008093B1008091B00081608093B000809150
:1006700091008260809391008091910081608093CD
:100680009100809190008160809390008091A10002
:1006900082608093A1008091A10081608093A1007D
:1006A0008091A00081608093A000809121018260F0
:1006B00080932101809121018160809321018091AB
:1006C000200181608093200180917A008460809372
:1006D0007A0080917A00826080937A0080917A001B
:1006E000816080937A0080917A00806880937A009C
:1006F0001092C100E0913D02F0913E0282E08083C1
:10070000E0913902F0913A021082E0913B02F091BF
:100710003C028FEC808310924502E0914102F091FF
:10072000420286E08083E0913F02F09140028081A6
:1007300080618083E0913F02F09140028081886077
:100740008083E0913F02F091400280818068808345
:10075000E0913F02F091400280818F7D8083C7E469
:10076000D5E080917B00886080937B00C0937C0003
:1007700080917A00806480937A0080917A0086FD6F
:10078000FCCF90917800809179008927982789275C
:10079000D89FB001D99F700D1124072E000C880B33
:1007A000990B0E94F30520E030EC4FE754E40E94DF
:1007B000500520E030E048EC52E40E94A8066B01AE
:1007C0007C014B015C01AC019B010E941507882351
:1007D000A1F182E192E00E940F028EE192E00E947C
:1007E0000F0281E292E00E940F020E94EA014B0197
:1007F0005C0188EEC82E83E0D82EE12CF12C0E94FB
:10080000EA01681979098A099B09683E73408105E4
:100810009105A8F321E0C21AD108E108F10888EE99
:10082000880E83E0981EA11CB11CC114D104E10400
:10083000F10429F70E94B90194CF26013701E89409
:1008400077F82FEF3FEF4FE75FE7C301B2010E9458
:10085000150781110DC02FEF3FEF4FE75FE7C30191
:10086000B2010E944B0518161CF486E192E0B3CF4A
:100870002FEF3FEF4FE75FE4C701B6010E94A306E9
:1008800018161CF48AE192E0A6CF2FEF3FEF4FE756
:100890005FECC701B6010E944B0587FDF3CF20E056
:1008A00030E0A901C701B6010E944B0587FF0BC0CC
:1008B0006DE28DE292E00E944C0146015701B7FAC9
:1008C000B094B7F8B0942AE037ED43EA5BE3C50192
:1008D000B4010E94DF044B015C010E94C2056B0160
:1008E0007C010E94F1059B01AC01C501B4010E948D
:1008F000DE044B015C014AE0C701B6010E941C0204
:100900006EE28DE292E00E944C0120E030E040E295
:1009100051E4C501B4010E94A8064B015C010E948C
:10092000C2056B01F12CE12C4AE0C701B6010E941F
:100930001C02C701B6010E94F1059B01AC01C50173
:10094000B4010E94DE0420E030E040E251E40E9465
:10095000A8060E94C20590E080E04AE00E941C02C6
:100960003CCFEDE2F2E01382128288EE93E0A0E049
:10097000B0E084839583A683B78384E092E091837B
:10098000808385EC90E09587848784EC90E097875E
:10099000868780EC90E0918B808B81EC90E0938B4C
:1009A000828B82EC90E0958B848B86EC90E0978B29
:1009B000868B118E128E138E148E08955058BB277D
:1009C000AA270E94F6040C9469060E945B0638F080
:1009D0000E94620620F039F49F3F19F426F40C942B
:1009E00058060EF4E095E7FB0C945206E92F0E949E
:1009F0007A0658F3BA17620773078407950720F041
:100A000079F4A6F50C949C060EF4E0950B2EBA2F03
:100A1000A02D0B01B90190010C01CA01A001112404
:100A2000FF27591B99F0593F50F4503E68F11A16B0
:100A3000F040A22F232F342F4427585FF3CF469541
:100A400037952795A795F0405395C9F77EF41F1663
:100A5000BA0B620B730B840BBAF09150A1F0FF0F2D
:100A6000BB1F661F771F881FC2F70EC0BA0F621F19
:100A7000731F841F48F4879577956795B795F79509
:100A80009E3F08F0B0CF9395880F08F09927EE0F9E
:100A90009795879508950E942E0608F481E00895A1
:100AA0000E9464050C9469060E94620658F00E9438
:100AB0005B0640F029F45F3F29F00C945206511177
:100AC0000C949D060C9458060E947A0668F39923AC
:100AD000B1F3552391F3951B550BBB27AA2762173A
:100AE0007307840738F09F5F5F4F220F331F441F47
:100AF000AA1FA9F335D00E2E3AF0E0E832D091507B
:100B00005040E695001CCAF72BD0FE2F29D0660F67
:100B1000771F881FBB1F261737074807AB07B0E8AA
:100B200009F0BB0B802DBF01FF2793585F4F3AF0B0
:100B30009E3F510578F00C9452060C949D065F3F41
:100B4000E4F3983ED4F3869577956795B795F79536
:100B50009F5FC9F7880F911D9695879597F908951E
:100B6000E1E0660F771F881FBB1F621773078407BA
:100B7000BA0720F0621B730B840BBA0BEE1F88F7C9
:100B8000E09508950E94820688F09F5798F0B92F4B
:100B90009927B751B0F0E1F0660F771F881F991FB2
:100BA0001AF0BA95C9F714C0B13091F00E949C06B2
:100BB000B1E008950C949C06672F782F8827B85FC2
:100BC00039F0B93FCCF3869577956795B395D9F70A
:100BD0003EF490958095709561957F4F8F4F9F4F14
:100BE0000895E89409C097FB3EF490958095709520
:100BF00061957F4F8F4F9F4F9923A9F0F92F96E969
:100C0000BB279395F695879577956795B795F111DD
:100C1000F8CFFAF4BB0F11F460FF1BC06F5F7F4F7A
:100C20008F4F9F4F16C0882311F096E911C077238C
:100C300021F09EE8872F762F05C0662371F096E895
:100C4000862F70E060E02AF09A95660F771F881F64
:100C5000DAF7880F9695879597F90895990F000808
:100C6000550FAA0BE0E8FEEF16161706E807F9077E
:100C7000C0F012161306E407F50798F0621B730B19
:100C8000840B950B39F40A2661F0232B242B252B9A
:100C900021F408950A2609F4A140A6958FEF811D3D
:100CA000811D089597F99F6780E870E060E00895DE
:100CB0009FEF80EC089500240A9416161706180674
:100CC0000906089500240A94121613061406050650
:100CD0000895092E0394000C11F4882352F0BB0FE1
:100CE00040F4BF2B11F460FF04C06F5F7F4F8F4F44
:100CF0009F4F089557FD9058440F551F59F05F3F7F
:100D000071F04795880F97FB991F61F09F3F79F02D
:100D100087950895121613061406551FF2CF4695AF
:100D2000F1DF08C0161617061806991FF1CF869531
:100D30007105610508940895E894BB276627772715
:100D4000CB0197F908950E942E0608F48FEF0895BD
:100D50000E94BB060C9469060E945B0638F00E9454
:100D6000620620F0952311F00C9452060C9458065C
:100D700011240C949D060E947A0670F3959FC1F38E
:100D8000950F50E0551F629FF001729FBB27F00D39
:100D9000B11D639FAA27F00DB11DAA1F649F66278E
:100DA000B00DA11D661F829F2227B00DA11D621FDD
:100DB000739FB00DA11D621F839FA00D611D221F97
:100DC000749F3327A00D611D231F849F600D211D7B
:100DD000822F762F6A2F11249F5750409AF0F1F0FE
:100DE00088234AF0EE0FFF1FBB1F661F771F881F67
:100DF00091505040A9F79E3F510580F00C94520647
:100E00000C949D065F3FE4F3983ED4F38695779566
:100E10006795B795F795E7959F5FC1F7FE2B880F0C
:100E2000911D9695879597F908950E942E06880B37
:100E3000990B0895A1E21A2EAA1BBB1BFD010DC040
:100E4000AA1FBB1FEE1FFF1FA217B307E407F5077A
:100E500020F0A21BB30BE40BF50B661F771F881F56
:100E6000991F1A9469F760957095809590959B01EC
:100E7000AC01BD01CF010895EE0FFF1F881F8BBF8E
:0C0E80000790F691E02D1994F894FFCF34
:100E8C00000000004C01B600E30099011401F200CF
:100E9C0006016E616E00696E66006F766600204317
:040EAC00000D0A002B
:00000001FF
